:020000040800F2
:1000000000500020351900087D1900087D190008EE
:100010007D1900087D1900087D1900080000000006
:100020000000000000000000000000007D19000832
:100030007D190008000000007D1900087D190008E6
:100040007D1900087D1900087D1900087D19000838
:100050007D1900087D1900087D1900087D19000828
:100060007D1900087D1900087D1900087D19000818
:100070007D1900087D1900087D1900087D19000808
:100080007D1900087D1900087D1900087D190008F8
:100090007D1900087D1900087D1900087D190008E8
:1000A0007D1900087D1900087D1900087D190008D8
:1000B000110800087D1900087D1900087D19000845
:1000C0007D1900087D1900087D1900087D190008B8
:1000D0007D1900087D190008BD0200087D1900087F
:1000E0007D1900087D1900087D1900080000000036
:1000F0000000000000000000000000000000000000
:0C01000000000000000000005FF808F1A3
:10010C0010B5054C237833B9044B13B10448AFF345
:10011C0000800123237010BD60040020000000004B
:10012C00541C0008084B10B51BB108480849AFF324
:10013C0000800848036803B910BD074B002BFBD0A7
:10014C00BDE81040184700BF00000000541C000818
:10015C00640400205C04002000000000154B002B00
:10016C0008BF134B9D46A3F5803A00218B460F46E2
:10017C001348144A121A01F035FC0F4B002B00D017
:10018C0098470E4B002B00D098470020002104000C
:10019C000D000D48002802D00C4801F0E5FC01F0E0
:1001AC00F9FB2000290001F049FB01F0E3FB00BF43
:1001BC00000008000000000000000000000000002B
:1001CC00600400208C080020751B0008811B0008AF
:1001DC0003685B06FCD54160704700BF03689B0653
:1001EC00FCD54068C0B27047104A10B4D469104BAB
:1001FC0044F40034D46194690E4944F004049461CD
:10020C001A685DF8044B22F47F421A601A6842F4B3
:10021C0030621A601A6842F480421A608860CB68B7
:10022C0043F4005343F00C03CB60704700100240C2
:10023C00000801400044004003490B68024A5B0679
:10024C00FBD55060704700BF0044004003490B6869
:10025C00024A9B06FBD55068C0B270470044004070
:10026C00074A0849D368402023F40053D360486000
:10027C00D36843F4005343F02003D360704700BFAE
:10028C000044004000E100E0074A0849D3684020E0
:10029C0023F4005323F02003D360C1F88400D36807
:1002AC0043F40053D36070470044004000E100E089
:1002BC00084A094B118810B45C684B1C9BB2074868
:1002CC00B3F5007F445428BF412313805DF8044BE1
:1002DC00704700BF04000020004400407C04002054
:1002EC0010B5414C82B0B4F8003200228DF80720D2
:1002FC003BB923780A2B04D00A233C48237000F026
:10030C004DFB3B4A5388118899425ED0E15C013326
:10031C009BB2B3F5007F28BF41238DF807105380A3
:10032C009DF80730082B27D09DF807307F2B23D062
:10033C009DF807300A2B41D09DF807300D2B3DD08E
:10034C00B4F80002284B3E2841D92A490B68294AA7
:10035C005B06FBD511460A2353600B68254A5B06E6
:10036C00FBD500230D21516023541F48A4F8003203
:10037C0084F8403002B010BDB4F800021A4B00B340
:10038C001C490B681B4A5B06FBD5114608235360BE
:10039C000B68184A5B06FBD51146202353600B688B
:1003AC00144A5B06FBD5013883B208200A21A4F855
:1003BC00003250600020E15402B010BDB4F80002CD
:1003CC00C3E70A221A7002B010BD0020D2E79DF8D4
:1003DC0007200849D2B24A609DF80710421C1954F4
:1003EC00A3F800220020C5E77C040020F81C0008BC
:1003FC000400002000440040104A10B4D469104B93
:10040C0044F48024D46194690E4944F00804946146
:10041C005A685DF8044B22F47F425A605A6842F4E1
:10042C0030625A605A6842F480425A608860CB68E5
:10043C0043F4005343F00C03CB60704700100240B0
:10044C00000C01400048004038B5054C04F124056F
:10045C0063680C349847AC42FAD1002038BD00BF19
:10046C0008000020704700BF08B50A4800F096FA53
:10047C00094800F093FA094800F090FA084800F097
:10048C008DFA084800F08AFABDE80840064800F0EA
:10049C0085BA00BFFC1C0008101D0008501D000888
:1004AC00901D0008D01D0008F01C000808B50A4873
:1004BC0000F074FA094800F071FA094800F06EFA7D
:1004CC00084800F06BFA084800F068FABDE80840EC
:1004DC00064800F063BA00BFFC1C0008101D0008A1
:1004EC00501D0008901D0008D01D0008F01C0008CD
:1004FC00022801D00120704708B5486800F0D8F8F0
:10050C0038B1064800F04AFA054800F047FA0020D6
:10051C0008BD044800F042FAF6E700BF101E0008C0
:10052C00F01C0008341E0008022801D0012070477E
:10053C0010B50C46094800F0BBF86168084800F09B
:10054C002BFB00F0B5F8074800F028FA00F0D2F8C1
:10055C000146054800F022FA002010BD581E000884
:10056C00681E00087C1E0008A41E00082DE9F0433C
:10057C00FF2400250C7015700478002C5ED001242B
:10058C00147018600478ACB11678092E61D84678CE
:10059C00222E33D0202C07D00A2C05D03446013023
:1005AC00F1E700F8015B0478202CFAD00A2CF8D083
:1005BC00002C3CD100263746D3F800C0DFF8A080D1
:1005CC009CF800E05FFA87F958F80650BEF1000F6E
:1005DC000ED02878864533D164466A1C03E012F8A5
:1005EC00010B83422DD114F8013F1546002BF6D197
:1005FC002B784BBB81F80090BDE8F083044604F8DF
:10060C00025B86784570002ED4D01678771C177054
:10061C0043F826408078222805D00028CAD014F848
:10062C00010F2228F9D12570601C6478ABE714788F
:10063C00661C167043F824000478A4E7BDE8F08328
:10064C007346984200D8D5D20C36242E07F10107F8
:10065C00B8D1BDE8F043014800F0A0B9A81E0008CD
:10066C000800002070B50E4D00260E48FFF7B6FDB1
:10067C000D2811D00A28F8D1741CA855E4B20948E9
:10068C00FFF7ACFD631C0A282855054ADCB2F6D1ED
:10069C0000231355104670BD731CA855DEB2E4E759
:1006AC00800600200048004040F6A660FFF7A4BE7C
:1006BC0038B505460D48294600F070F9297841B146
:1006CC00002401340A48E4B2FFF782FD295D0029B9
:1006DC00F7D10A210648FFF77BFDFFF7C3FF014660
:1006EC00024800F05BF9002038BD00BFE81E00088E
:1006FC0000480040B6E700BF1549164ACB6910B454
:10070C0043F00403CB6113684FF47A7143F0800318
:10071C00472413609462D1625369114643F001037C
:10072C005361136843F00103136040B11369DB0795
:10073C00FCD50B69013823F001030B61F6D1054A96
:10074C005DF8044B136823F001031360704700BF7E
:10075C0000100240000800401449154ACB6910B43F
:10076C0043F00403CB611368482143F08003002459
:10077C0013609462D1625369114643F001035361D3
:10078C00136843F00103136040B11369DB07FCD518
:10079C000B69013823F001030B61F6D1044A5DF8B3
:1007AC00044B136823F001031360704700100240E0
:1007BC00000800401148F0B4C1694FF0804300229A
:1007CC000124472741F001014FF47A768425C16159
:1007DC009F62DE621D605A605A62DC60596908488B
:1007EC002143596119684FF0805441F0010119609F
:1007FC0080F81C230460F0BC704700BF001002405E
:10080C0000E100E04FF080431A69D20705D5034997
:10081C0000200A6801320A601861704780070020C6
:10082C00014B1868704700BF80070020084B1B68FD
:10083C00834205D3084483422CBF0020012070471B
:10084C00C0431844814294BF00200120704700BF70
:10085C0080070020014B1860704700BF8407002000
:10086C0003681A78682A0DD0772A07D0622A01D03B
:10087C002020704701330360082070470133036068
:10088C002020704701330360102070470A292DE99E
:10089C00F0410646144630D0102915D0022901D05B
:1008AC00BDE8F081002A5AD02E4F013CE4B246FA42
:1008BC0004F313F0010F0CBF302031203B68984734
:1008CC00002CF2D1BDE8F08195080135EDB2012D77
:1008DC00E6D0244F043CE4B246FA04F000F00F00DA
:1008EC00092805F1FF3594BF303037303B68EDB245
:1008FC009847012DEED1BDE8F081092888BF01236E
:10090C0028D901EB81014900B6FBF1F20133DBB2CE
:10091C00002AF6D1144DA5FB0121CD08B4B16425F4
:10092C00104FDFF84480B6FBF5F3A8FB052103F16B
:10093C003000C0B2DBB23A68013C05FB1366CD084F
:10094C00904714F0FF04EED1BDE8F081002BA7D046
:10095C001C46E5E70125002AE1D12C46E0E7BDE87D
:10096C00F08100BF84070020CDCCCCCC70B50A4EF2
:10097C00441E00F17F0501E0AC420CD014F8010FCD
:10098C0048B13368984723780A2BF5D133680D208A
:10099C009847AC42F2D170BD840700200FB42DE90A
:1009AC00F04383B00AAA52F8043B6F4E1C780192B4
:1009BC00252C03F101050CD0002C00F0B18033681C
:1009CC00204698470A2C19D02B461C785D1C252CE8
:1009DC00F2D158789D1CA0F16202162A00F29C807C
:1009EC00DFE802F081796C9A359A9A9A9A9A9A9AD7
:1009FC009A9A9A9A9A2D9A9A9A9A110033680D207B
:100A0C0098472B46E1E79A78682A00F09180772A7C
:100A1C0000F09180622A00F094802024019B3268BF
:100A2C00191D1F6830200191904733687820984732
:100A3C00384622461021FFF729FF2B46C5E7019BBC
:100A4C001A1D18680192FFF791FF2B46BDE7019B19
:100A5C00073323F00703D3E9008903F10802494661
:100A6C004046019200F0C2FE074600F0BFFB024672
:100A7C000B464046494600F06BFA00223B4B00F017
:100A8C001BFC00F0B3FE49460446002240460023FE
:100A9C0000F084FE00285FD1DFF8CC800A21002210
:100AAC003846FFF7F3FED8F800302E209847204642
:100ABC000A210322FFF7EAFE2B4686E7019B1C68FE
:100ACC000433002C019342DB20460A210022FFF75D
:100ADC00DDFE2B4679E7019B3268191D18780191D0
:100AEC0090472B4671E79A78682A1ED0772A2BD02C
:100AFC00622A23D02024019B3268191D1F683020E4
:100B0C00019190473368622098473846224602216B
:100B1C00FFF7BCFE2B4658E7336898472B4654E743
:100B2C0003B0BDE8F04304B07047DD1C1024E2E7CD
:100B3C00DD1C102472E7DD1C20246FE7DD1C08246B
:100B4C00D9E7DD1C082469E7DD1C2024D3E73368D2
:100B5C002D2098476442B7E733682D209847DFF87B
:100B6C0008807F42644299E78407002000408F4050
:100B7C00014B1868704700BF8407002010B4044A6A
:100B8C00044913785C1C1470C8545DF8044B70470E
:100B9C00880700208C0700200FB42DE9F04F83B09C
:100BAC00FFF7E6FF80467848FFF754FE774C0C9928
:100BBC00002222704A1C0DAB0C9201930B78254637
:100BCC00252BDFF8CC9112D0002B00F0BD802078C3
:100BDC000A2B00F10101C9B26D4E09F800302170E9
:100BEC001BD011464A1C0C920B78252BECD18A1C7D
:100BFC000C924978A1F16203162B00F29E80DFE87B
:100C0C0003F0897E719C399C9C9C9C9C9C9C9C9C1C
:100C1C009C9C9C309C9C9C9C120002300D23735419
:100C2C0028701146DEE70CA8FFF71AFE2778019B07
:100C3C007E1C0246043353F8040C4FF0300AF6B213
:100C4C0007F1020C4FF0780E102109F807A0019360
:100C5C0084F800C009F806E0FFF718FE0C9A11465C
:100C6C00C0E7019B1A1D18680192FFF77FFE0C9AD2
:100C7C001146B7E7019B073323F00703D3E900675D
:100C8C0003F1080239463046019200F0AFFD83466D
:100C9C0000F0ACFA02460B463046394600F058F9E3
:100CAC0000223C4B00F008FB00F0A0FD39468246C8
:100CBC0000223046002300F071FD002850D1584628
:100CCC000A210022FFF7E2FD23780A215E1C032291
:100CDC0050462E2709F803702670FFF7D7FD0C9AA3
:100CEC0011467FE7019B186804330028019342DB0F
:100CFC000A210022FFF7CAFD0C9A114672E7019BEC
:100D0C0021781E78481C043309F801600193207087
:100D1C00114667E70CA8FFF7A3FD2778019B7E1C03
:100D2C000246043353F8040C4FF0300AF6B207F1C4
:100D3C00020C4FF0620E022187E72378581C09F849
:100D4C000310207011464DE72278404609F8023016
:100D5C00FFF780FD0E4803B0BDE8F04F04B07047BC
:100D6C0023782D215A1CCBF1000BCAF1000A09F88B
:100D7C0003102270A3E723782D215A1C404209F856
:100D8C0003102270B4E700BF890B0008880700200D
:100D9C008C07002000408F4003780A782BB906E0BE
:100DAC0010F8013F53B111F8012F9342F8D09A4239
:100DBC0006D834BF0120002040B270474A78F6E7CD
:100DCC00FF20F9E72D4B002182B0009101911968A9
:100DDC001A4641F48031196003E0009BB3F5A06F13
:100DEC0009D0136803F400330193009B0133009383
:100DFC00019B002BF1D0214B1B6813F4003318BF5F
:100E0C0001230193019B012B01D002B070471C4AB6
:100E1C001A4B1068194640F010001060106820F052
:100E2C0007001060106840F0040010605A685A60A7
:100E3C005A685A605A6842F480625A605A6822F4BE
:100E4C007C125A605A6842F4E8125A601A6842F0EE
:100E5C0080721A600B68094A9B01FBD511465368D6
:100E6C0023F003035360536843F0020353604B6851
:100E7C0003F00C03082BFAD102B0704700100240AB
:100E8C000020024008B5104B104A19684FF41F009F
:100E9C0041F00101196059680A405A601A6822F041
:100EAC00847222F480321A601A6822F480221A604A
:100EBC005A6822F4FE025A609860FFF783FF044BD5
:100ECC004FF000629A6008BD001002400000FFF86D
:100EDC0000ED00E0114A536803F00C03082B0ED10F
:100EEC0053685168C3F38343C90303F1020311D55B
:100EFC00526892030ED40A4A02FB03F300E0084B3B
:100F0C00064A084852680849C2F30312825CD3406F
:100F1C000B607047054A02FB03F3F1E70010024037
:100F2C0000127A00701C00082C00002000093D0003
:100F3C0048E700BF081F0008000000205C040020E8
:100F4C00600400208C08002081F0004102E000BF0A
:100F5C0083F0004330B54FEA41044FEA430594EA6D
:100F6C00050F08BF90EA020F1FBF54EA000C55EAA8
:100F7C00020C7FEA645C7FEA655C00F0E2804FEA79
:100F8C005454D4EB5555B8BF6D420CDD2C4480EA5B
:100F9C00020281EA030382EA000083EA010180EA8B
:100FAC00020281EA0303362D88BF30BD11F0004FD9
:100FBC004FEA01314FF4801C4CEA113102D040420F
:100FCC0061EB410113F0004F4FEA03334CEA13334A
:100FDC0002D0524263EB430394EA050F00F0A78062
:100FEC00A4F10104D5F1200E0DDB02FA0EFC22FA5D
:100FFC0005F2801841F1000103FA0EF2801843FA51
:10100C0005F359410EE0A5F120050EF1200E012A41
:10101C0003FA0EFC28BF4CF0020C43FA05F3C0187F
:10102C0051EBE37101F0004507D54FF0000EDCF1F8
:10103C00000C7EEB00006EEB0101B1F5801F1BD3A1
:10104C00B1F5001F0CD349085FEA30004FEA3C0CA5
:10105C0004F101044FEA445212F5800F80F09A809B
:10106C00BCF1004F08BF5FEA500C50F1000041EB9F
:10107C00045141EA050130BD5FEA4C0C404141EBA3
:10108C00010111F4801FA4F10104E9D191F0000FCA
:10109C0004BF01460020B1FA81F308BF2033A3F14D
:1010AC000B03B3F120020CDA0C3208DD02F1140C44
:1010BC00C2F10C0201FA0CF021FA02F10CE002F17F
:1010CC001402D8BFC2F1200C01FA02F120FA0CFC78
:1010DC00DCBF41EA0C019040E41AA2BF01EB0451C1
:1010EC00294330BD6FEA04041F3C1CDA0C340EDCBF
:1010FC0004F11404C4F1200220FA04F001FA02F302
:10110C0040EA030021FA04F345EA030130BDC4F1BF
:10111C000C04C4F1200220FA02F001FA04F340EAB4
:10112C000300294630BD21FA04F0294630BD94F065
:10113C00000F83F4801306BF81F480110134013D4C
:10114C004EE77FEA645C18BF7FEA655C29D094EABD
:10115C00050F08BF90EA020F05D054EA000C04BF3B
:10116C001946104630BD91EA030F1EBF0021002026
:10117C0030BD5FEA545C05D14000494128BF41F0C5
:10118C00004130BD14F580043CBF01F5801130BD29
:10119C0001F0004545F0FE4141F470014FF00000B4
:1011AC0030BD7FEA645C1ABF194610467FEA655C65
:1011BC001CBF0B46024650EA013406BF52EA033507
:1011CC0091EA030F41F4002130BD00BF90F0000FF5
:1011DC0004BF0021704730B54FF4806404F1320431
:1011EC004FF000054FF0000150E700BF90F0000FEA
:1011FC0004BF0021704730B54FF4806404F1320411
:10120C0010F0004548BF40424FF000013EE700BFE0
:10121C0042004FEAE2014FEA31014FEA02701FBF70
:10122C0012F07F4393F07F4F81F06051704792F042
:10123C00000F14BF93F07F4F704730B54FF46074BC
:10124C0001F0004521F0004120E700BF50EA010207
:10125C0008BF704730B54FF000050AE050EA0102B4
:10126C0008BF704730B511F0004502D5404261EB24
:10127C0041014FF4806404F132045FEA915C3FF465
:10128C00DCAE4FF003025FEADC0C18BF03325FEAFE
:10129C00DC0C18BF033202EBDC02C2F1200300FAB3
:1012AC0003FC20FA02F001FA03FE40EA0E0021FAD8
:1012BC0002F11444C1E600BF70B54FF0FF0C4CF4C2
:1012CC00E06C1CEA11541DBF1CEA135594EA0C0F78
:1012DC0095EA0C0F00F0DEF82C4481EA030621EAB3
:1012EC004C5123EA4C5350EA013518BF52EA0335EE
:1012FC0041F4801143F4801338D0A0FB02CE4FF0A0
:10130C000005E1FB02E506F00042E0FB03E54FF0CF
:10131C000006E1FB03569CF0000F18BF4EF0010EC7
:10132C00A4F1FF04B6F5007F64F5407404D25FEAC3
:10133C004E0E6D4146EB060642EAC62141EA555176
:10134C004FEAC52040EA5E504FEACE2EB4F1FD0CB8
:10135C0088BFBCF5E06F1ED8BEF1004F08BF5FEA36
:10136C00500E50F1000041EB045170BD06F00046E8
:10137C0046EA010140EA020081EA0301B4EB5C0495
:10138C00C2BFD4EB0C0541EA045170BD41F480118D
:10139C004FF0000E013C00F3AB8014F1360FDEBFB2
:1013AC00002001F0004170BDC4F10004203C35DA8E
:1013BC000C341BDC04F11404C4F1200500FA05F311
:1013CC0020FA04F001FA05F240EA020001F00042B2
:1013DC0021F0004110EBD37021FA04F642EB060128
:1013EC005EEA430E08BF20EAD37070BDC4F10C0452
:1013FC00C4F1200500FA04F320FA05F001FA04F216
:10140C0040EA020001F0004110EBD37041F1000101
:10141C005EEA430E08BF20EAD37070BDC4F120050C
:10142C0000FA05F24EEA020E20FA04F301FA05F274
:10143C0043EA020321FA04F001F0004121FA04F21C
:10144C0020EA020000EBD3705EEA430E08BF20EAEC
:10145C00D37070BD94F0000F0FD101F00046400026
:10146C0041EB010111F4801F08BF013CF7D041EAA8
:10147C00060195F0000F18BF704703F000465200AC
:10148C0043EB030313F4801F08BF013DF7D043EA7D
:10149C000603704794EA0C0F0CEA135518BF95EA33
:1014AC000C0F0CD050EA410618BF52EA4306D1D1BA
:1014BC0081EA030101F000414FF0000070BD50EAD9
:1014CC00410606BF1046194652EA430619D094EA63
:1014DC000C0F02D150EA013613D195EA0C0F05D14D
:1014EC0052EA03361CBF104619460AD181EA0301A1
:1014FC0001F0004141F0FE4141F470014FF0000059
:10150C0070BD41F0FE4141F4780170BD70B54FF0F3
:10151C00FF0C4CF4E06C1CEA11541DBF1CEA135573
:10152C0094EA0C0F95EA0C0F00F0A7F8A4EB050455
:10153C0081EA030E52EA03354FEA013100F088804C
:10154C004FEA03334FF0805545EA131343EA126315
:10155C004FEA022245EA111545EA10654FEA0026CA
:10156C000EF000419D4208BF964244F1FD0404F583
:10157C00407402D25B084FEA3202B61A65EB0305DF
:10158C005B084FEA32024FF480104FF4002CB6EB9C
:10159C00020E75EB030E22BFB61A754640EA0C001C
:1015AC005B084FEA3202B6EB020E75EB030E22BF5C
:1015BC00B61A754640EA5C005B084FEA3202B6EB9D
:1015CC00020E75EB030E22BFB61A754640EA9C005C
:1015DC005B084FEA3202B6EB020E75EB030E22BF2C
:1015EC00B61A754640EADC0055EA060E18D04FEAEA
:1015FC00051545EA16754FEA06164FEAC30343EA8A
:10160C0052734FEAC2025FEA1C1CC0D111F4801F56
:10161C000BD141EA00014FF000004FF0004CB6E74F
:10162C0011F4801F04BF01430020B4F1FD0C88BFEE
:10163C00BCF5E06F3FF6AFAEB5EB030C04BFB6EBF9
:10164C00020C5FEA500C50F1000041EB045170BDEC
:10165C000EF0004E4EEA113114EB5C04C2BFD4EB19
:10166C000C0541EA045170BD41F480114FF0000E9D
:10167C00013C90E645EA060E8DE60CEA135594EA19
:10168C000C0F08BF95EA0C0F3FF43BAF94EA0C0F1C
:10169C000AD150EA01347FF434AF95EA0C0F7FF491
:1016AC0025AF104619462CE795EA0C0F06D152EAE5
:1016BC0003353FF4FDAE1046194622E750EA4106C9
:1016CC0018BF52EA43067FF4C5AE50EA41047FF4DA
:1016DC000DAF52EA43057FF4EBAE12E74FF0FF3C3F
:1016EC0006E000BF4FF0010C02E000BF4FF0010C10
:1016FC004DF804CD4FEA410C7FEA6C5C4FEA430C89
:10170C0018BF7FEA6C5C1BD001B050EA410C0CBFD7
:10171C0052EA430C91EA030F02BF90EA020F002039
:10172C00704710F1000F91EA030F58BF994208BFA0
:10173C0090422CBFD8176FEAE37040F0010070475D
:10174C004FEA410C7FEA6C5C02D150EA013C07D1B4
:10175C004FEA430C7FEA6C5CD6D152EA033CD3D0FF
:10176C005DF8040B704700BF8446104662468C46F9
:10177C001946634600E000BF01B5FFF7B7FF00282C
:10178C0048BF10F1000F01BD4DF808EDFFF7F4FF55
:10179C000CBF012000205DF808FB00BF4DF808EDE0
:1017AC00FFF7EAFF34BF012000205DF808FB00BF03
:1017BC004DF808EDFFF7E0FF94BF012000205DF825
:1017CC0008FB00BF4DF808EDFFF7CEFF94BF0120DA
:1017DC0000205DF808FB00BF4DF808EDFFF7C4FFD3
:1017EC0034BF012000205DF808FB00BF4FEA410226
:1017FC0012F5001215D211D56FF47873B3EB625257
:10180C0012D94FEAC12343F0004343EA505311F07D
:10181C00004F23FA02F018BF404270474FF000000F
:10182C00704750EA013005D111F0004008BF6FF04D
:10183C00004070474FF00000704700BF30B50024E7
:10184C008DB08DF806408DF80740FEF72DFF4FF454
:10185C009C70FEF7C9FCFEF703FD2B48FEF7FAFF60
:10186C00FEF702FE29492A4B8A692A4D42F01002E2
:10187C008A615A6822F470025A605A6842F4401223
:10188C005A60DC60DA6822F40052DA60FEF728FD58
:10189C000028FBD00DF107020DF1060102ABFEF79B
:1018AC0065FE9DF90620012A09D0022A2AD012B31E
:1018BC001948FFF773F81948FFF770F8E6E76B69FA
:1018CC009DF8070002A90022984704461248FFF72A
:1018DC0065F8A20705D4E307EDD51148FFF75EF8CC
:1018EC00E9E79DF906300F4803EB430355F8231045
:1018FC00FFF754F8DFE7AB689DF8070002A998479B
:10190C000446E3E72B6ADBE74502000800100240BF
:10191C000010014008000020881C0008F01C000882
:10192C00CC1C0008901C0008002103E00B4B5B58FA
:10193C00435004310A480B4B42189A42F6D30A4AD8
:10194C0002E0002342F8043B084B9A42F9D3FFF71C
:10195C0099FA00F01FF8FFF771FF7047081F000895
:10196C00000000205C040020600400208C08002093
:10197C00FEE7000008B50021044600F08BF8044B8C
:10198C001868C36B03B19847204600F05BF900BFA1
:10199C00F01E000870B50F4E0F4D761BB61018BF19
:1019AC00002405D0013455F8043B9847A642F9D1E0
:1019BC000A4E0B4D00F04AF9761BB61018BF0024E6
:1019CC0006D0013455F8043B9847A642F9D170BDB6
:1019DC0070BD00BFFC1E0008FC1E0008041F0008A0
:1019EC00FC1E000870B4840746D0541E002A41D057
:1019FC00CDB2034602E0621EE4B3144603F8015B69
:101A0C009A07F8D1032C2ED9CDB245EA05250F2C17
:101A1C0045EA054519D9264603F11002103E0F2E52
:101A2C0042F8105C42F80C5C42F8085C42F8045C2A
:101A3C0002F11002F2D8A4F1100222F00F0204F00D
:101A4C000F041032032C13440DD91E462246043ABF
:101A5C00032A46F8045BFAD8221F22F00302043250
:101A6C00134404F003042CB1C9B21C4403F8011B49
:101A7C00A342FBD170BC704714460346C2E700BFBB
:101A8C00024B13B1024800F06FB870470000000021
:101A9C00811B00082DE9F04F81460E46304B83B078
:101AAC001B68009303F5A4730193009BD3F8487152
:101ABC0027B3DDF804A07C68651E0ED4013407EB57
:101ACC0084044FF00008E6B1D4F80031B34218D0CA
:101ADC00013D6B1CA4F10404F5D1224B73B17B685E
:101AEC00002B36D13B68002B34D03846CAF8003076
:101AFC00AFF30080DAF80070002FDCD103B0BDE842
:101B0C00F08F7B682268013BAB420CBF7D60C4F850
:101B1C000080002ADCD0D7F888310121A940194275
:101B2C00D7F804B008D190477B685B45BDD1DAF893
:101B3C000030BB42CCD0B8E7D7F88C31194204D175
:101B4C004846D4F880109047EEE7D4F880009047D0
:101B5C00EAE73B68BA461F46002FACD1CEE700BF80
:101B6C00F01E00080000000001460020024603465B
:101B7C0000F016B838B5084B084DED1AAC1018BF6C
:101B8C00ED1805D0013C55F8043D9847002CF9D1CF
:101B9C00BDE8384000F060B8041F0008081F0008BA
:101BAC002DE9F047254C064625688846D5F848416E
:101BBC0092469946C4B360681F2817DC411C76B165
:101BCC0004EB8003C3F888A0D4F88851012282402A
:101BDC001543022EC4F88851C3F808911ED0831CFB
:101BEC006160002044F82380BDE8F087144B03B3F8
:101BFC004FF4C870AFF300800446D0B1D5F848312B
:101C0C00002784E888003846C5F848410121C4F80B
:101C1C008871C4F88C71002EE1D0D1E7D4F88C31E6
:101C2C001A43C4F88C21DAE705F5A674C5F84841C7
:101C3C00C1E74FF0FF30BDE8F08700BFF01E000891
:101C4C0000000000FEE700BF00000000F8B500BF78
:101C5C00F8BC08BC9E467047F8B500BFF8BC08BC81
:041C6C009E467047D9
:101C7000000000000000000001020304060708093C
:101C800000000000010203041B5B316D0000000036
:101C90001B5B33316D202025733A1B5B33346D732E
:101CA0006F6D65206F6620617267756D656E747308
:101CB00020646F206E6F74206861766520636F7298
:101CC000726563742074797065210A001B5B33317F
:101CD0006D20204552524F523A1B5B33346D2075B4
:101CE0006E6B6E6F776E20636F6D6D616E640A0050
:101CF0001B5B306D000000003E2000000A1B5B30C3
:101D00006D1B5B316D1B5B33346D1B5B324A000016
:101D10002D2D2D2D2D2D2D2D2D2D2D2D2D2D2D2DF3
:101D20002D2D2D2D2D2D2D2D2D2D2D2D2D2D2D2DE3
:101D30002D2D2D2D2D2D2D2D2D2D2D2D2D2D2D2DD3
:101D40002D2D2D2D2D2D2D2D2D2D2D0A000000009A
:101D50007C20202020202020202020202020202027
:101D600020202020434F4D4D414E44204C494E45AC
:101D700020494E54455246414345202020202020F2
:101D8000202020202020202020207C0A000000008D
:101D90007C202020202020202020202020202020E7
:101DA000202020202020464F522053494D383030EB
:101DB0002076312E3020202020202020202020209E
:101DC000202020202020202020207C0A000000004D
:101DD0002D2D2D2D2D2D2D2D2D2D2D2D2D2D2D2D33
:101DE0002D2D2D2D2D2D2D2D2D2D2D2D2D2D2D2D23
:101DF0002D2D2D2D2D2D2D2D2D2D2D2D2D2D2D2D13
:101E00002D2D2D2D2D2D2D2D2D2D2D0A0A000000CF
:101E10003E1B5B33316D20415420434F4D4D414EAD
:101E200044204E4F54205355434345535346554C3D
:101E30000A0000003E1B5B316D1B5B33346D20419B
:101E40005420434F4D4D414E442053554343455339
:101E50005346554C0A00000041542B435343533D15
:101E60002247534D2200000041542B435553443D1B
:101E7000312C222573222C31350000001B5B316D83
:101E80001B5B33346D5761697420666F7220555344
:101E9000534420726573706F6E73653A200A1B5B42
:101EA000306D0000257300001B5B316D1B5B33310F
:101EB0006D20204552524F523A1B5B33346D2075D2
:101EC0006E6B6E6F776E20636F6D6D616E640A1B53
:101ED0005B306D0068656C7000000000617400008C
:101EE000757373640000000025730A00430000004E
:041EF000300000209E
:081EF40074E2FF7F0100000011
:081EFC008D1A000831010008F5
:041F04000D010008C3
:101F08000000000041004100D41E000875040008CC
:101F180055040008DC1E000871040008FD040008D0
:101F2800E01E0008B90400083505000800A24A04AC
:101F3800000000001C03002084030020EC030020A4
:101F48000000000000000000000000000000000089
:101F58000000000000000000000000000000000079
:101F680000000000EC1E0008000000000000000057
:101F78000000000000000000000000000000000059
:101F88000000000000000000000000000000000049
:101F98000000000000000000000000000000000039
:101FA8000000000000000000000000000000000029
:101FB8000000000000000000000000000000000019
:101FC8000000000000000000000000000000000009
:101FD80000000000000000000100000000000000F8
:101FE8000E33CDAB34126DE6ECDE05000B000000BD
:101FF80000000000000000000000000000000000D9
:1020080000000000000000000000000000000000C8
:1020180000000000000000000000000000000000B8
:1020280000000000000000000000000000000000A8
:0C23580000000000000000003000002029
:042364000000000075
:0400000508001935A1
:00000001FF
